:10000000F8FF0020110400006510000065100000DA
:10001000651000006510000065100000651000000C
:1000200065100000651000006510000065100000FC
:1000300065100000651000006510000065100000EC
:1000400065100000651000006510000065100000DC
:1000500065100000651000006510000065100000CC
:1000600065100000651000006510000065100000BC
:1000700065100000651000006510000065100000AC
:10008000651000006510000065100000651000009C
:10009000651000006510000065100000651000008C
:1000A000651000006510000065100000651000007C
:1000B000651000006510000065100000651000006C
:1000C000651000006510000065100000651000005C
:1000D000651000006510000065100000651000004C
:1000E000651000006510000065100000651000003C
:1000F000651000006510000065100000651000002C
:10010000651000006510000065100000651000001B
:10011000651000006510000065100000651000000B
:1001200065100000651000006510000065100000FB
:1001300065100000651000006510000065100000EB
:1001400065100000651000006510000065100000DB
:1001500069560000095A0000215A0000651000008D
:1001600065100000651000006510000065100000BB
:1001700065100000651000006510000065100000AB
:10018000651000006510000065100000651000009B
:10019000651000006510000065100000651000008B
:1001A0006510000065100000651000005D5A000039
:1001B000651000006510000065100000651000006B
:1001C000651000006510000065100000651000005B
:1001D000651000006510000065100000651000004B
:1001E000651000006510000065100000651000003B
:10040000FFFFFFFFFFFFFFFFFFFFFFFFFEFFFFFFFD
:1004100062B64FF000004FF000014FF000024FF0C5
:1004200000034FF000044FF000054FF000064FF0BE
:1004300000074FF000084FF000094FF0000A4FF09E
:10044000000B4FF0000C00F08DFBFEE7DFF800F032
:100450007904FF1F38B504000D0001F067FA2A0087
:100460002100DFF8300600F0A6FA01F079FA02F078
:1004700063F8F4E710B504002100C9B2012002F0CE
:10048000DFFF10BD70B504000D00160030680128B4
:1004900002D0022805D00AE02000C0B27168884767
:1004A00005E0B0680470B068401CB060FFE72868E1
:1004B000401C286070BD2DE9F04704005FF0000A81
:1004C0005046A1465FF0000A89F800A019F1010921
:1004D000002A1FD0D1F800A05546002D05D15FF0AD
:1004E000300A89F800A0401C38E0002D36D095FB7A
:1004F000F3FA564603FB165A5746002F02D5FF4320
:10050000313700E03037350089F8007019F1010902
:10051000401CEAE7D1F800A0D446BCF1000F05D199
:100520005FF0300A89F800A0401C17E0BCF1000F12
:1005300014D0BCFBF3FAD64603FB1ECAD046B8F172
:100540000A0F02D218F1300801E018F13708F4461A
:1005500089F8008019F10109401CE7E7BDE8F08740
:100560002DE9F04104000D0016001F00A046A8452B
:1005700007DA3A0031003020FFF784FF18F1010854
:10058000F5E7BDE8F0812DE9F04104000D0016000B
:100590001F00A046A84507DA3A0031002020FFF7E7
:1005A00071FF18F10108F5E7BDE8F0812DE9F24F80
:1005B00092B00400150000200090129883469BF82A
:1005C00000000590002800F0F2810598252813D03E
:1005D00005980A2805D0220000A90598FFF752FFC8
:1005E00009E0220000A90D20FFF74CFF220000A91E
:1005F0000A20FFF747FFD7E1002081460020039043
:100600000398002822D11BF1010B9BF80000202841
:100610000ED0232812D02B2807D02D2802D0302826
:1006200009D00EE059F00109EAE759F00209E7E7BD
:1006300059F00409E4E759F00809E1E759F0100915
:10064000DEE7BBF1010B01200390D9E700208246D1
:10065000002003900398002813D11BF1010B9BF895
:10066000000005903038092806D80A20059900FBBB
:100670000A10B0F1300AEDE7BBF1010B0120039045
:10068000E8E71BF1010B9BF800002E2811D1002098
:100690000390039800280ED11BF1010B9BF800007A
:1006A0003038092800D8F4E7BBF1010B0120039092
:1006B000EFE7BBF1010B1BF1010B9BF800004C288D
:1006C00006D0682802D06C2801D002E003E002E0E6
:1006D00001E0BBF1010B1BF1010B9BF80000059041
:1006E000582875D0622800F0D580632800F01D815D
:1006F000642813D0692811D06E2800F049816F2832
:1007000000F0BD80702800F0D080732800F01681C2
:10071000752800F0D58078285AD040E128680690E6
:100720002D1D0A23012206A909A8FFF7C4FE070010
:1007300009A8381806000698002803D52D20029035
:100740007F1C0FE04846800703D52B2002907F1CBA
:1007500008E04846400703D5202002907F1C01E0B6
:1007600000200290002004904846000711D502980E
:10077000002804D0220000A90298FFF783FE012080
:100780000490230000AA51463800FFF7E9FE5746BF
:1007900012E04846C0070FD4230000AA5146380093
:1007A000FFF7F1FE0298002804D0220000A9029869
:1007B000FFF768FE012004900498002807D10298F2
:1007C000002804D0220000A90298FFF75BFE98E001
:1007D000286801902D1D1023002201A909A8FFF708
:1007E0006AFE070009A83818060000200490484651
:1007F000000716D54846C0060BD5220000A93020B8
:10080000FFF740FE220000A97820FFF73BFE012001
:100810000490230000AA51463800FFF7A1FE574676
:100820001BE04846C00718D44846C00600D5BF1C88
:10083000230000AA51463800FFF7A5FE4846C0062F
:100840000BD5220000A93020FFF71CFE220000A9D2
:100850007820FFF717FE012004904846C0060DD50A
:10086000049800280AD1220000A93020FFF70AFED0
:10087000220000A97820FFF705FEBF1C41E0286890
:1008800001902D1D0823002201A909A8FFF713FEDE
:1008900007001FE0286801902D1D0223002201A9F6
:1008A00009A8FFF708FE070014E0286801902D1D35
:1008B0001023002201A909A8FFF7FDFD070009E0A8
:1008C000286801902D1D0A23002201A909A8FFF71D
:1008D000F2FD070009A8381806004846000707D5AA
:1008E000230000AA51463800FFF73AFE574608E0B9
:1008F0004846C00705D4230000AA51463800FFF738
:1009000042FE3078002806D0220000A93078FFF798
:10091000B9FD761EF5E74846C00705D5230000AAB5
:1009200051463800FFF72FFE3EE0287807902D1D36
:10093000220000A90798FFF7A5FD35E0286880464A
:100940002D1DB8F1000F22D0404600F0A5F8070099
:100950004846C00705D4230000AA51463800FFF7D7
:1009600012FE98F80000002808D0220000A998F88C
:100970000000FFF787FD18F10108F2E74846C007BD
:1009800005D5230000AA51463800FFF7FCFD0BE017
:10099000286808902D1D08980099016004E0220045
:1009A00000A90598FFF76EFD1BF1010B07E6009803
:1009B00013B0BDE8F08F0EB47EB5040001200090A6
:1009C000DFF8CC02019007A805002A00210000A84A
:1009D000FFF7ECFD060030007EBC5DF810FB2DE952
:1009E000F843DFF8B002DFF8B01288420FD00020E1
:1009F0008046B8F5826F0AD2DFF89802DFF89812C5
:100A000051F8281040F8281018F10108F1E7DFF834
:100A1000840200F051F8DFF884020700DFF880025A
:100A20000600DFF880020400A01B80464046B0F1BB
:100A30000108002804D030783870761C7F1CF5E758
:100A4000DFF864028146DFF864020500B5EB0900B7
:100A500080464046B0F10108002805D0002089F802
:100A6000000019F10109F4E7DFF84402DFF844124D
:100A7000DFF84422531A98464346B3F10108002B8D
:100A800004D00B780370491C401CF5E7BDE8F183E6
:100A900000000000C469000001000A000023002AD1
:100AA00001D1002007E01000421C0078002801D08E
:100AB0005B1CF8E718007047DFF8F418086070470F
:100AC00038B504005C2C03DBDFF8E808FFF773FFA0
:100AD000202094FBF0F00500002D03D0022D2BD038
:100AE00015D33DE00120202194FBF1F202FB1142DD
:100AF0009040DFF8C41808600120202194FBF1F237
:100B000002FB11429040DFF8B418086028E0012091
:100B1000202194FBF1F202FB11429040DFF8A01873
:100B200008600120202194FBF1F202FB1142904069
:100B3000DFF89018086013E00120202194FBF1F207
:100B400002FB11429040DFF880180860012020214C
:100B500094FBF1F202FB11429040DFF8701808603C
:100B600031BD000080B502F081FCFFF738FF00F0D6
:100B70004DFADFF85C08FFF71EFFDFF85808006841
:100B8000DFF854184979491CB0FBF1F00090DFF808
:100B900044080068DFF840180979491CB0FBF1F3FC
:100BA000DFF830080068DFF83018C978491CB0FB5E
:100BB000F1F2DFF820080168DFF82008FFF7FBFEFC
:100BC000DFF81C080078400703D5DFF81808FFF7A6
:100BD000F2FEDFF80C080078800703D5DFF808087C
:100BE000FFF7E9FEDFF8F8070078C00703D5DFF864
:100BF000FC07FFF7E0FEDFF8F8070078000603D5F2
:100C0000DFF8F007FFF7D7FEDFF8E40700784006CB
:100C100003D5DFF8E407FFF7CEFEDFF8D40700784E
:100C2000800603D5DFF8D407FFF7C5FEDFF8C0075D
:100C30000078400703D5DFF8C807FFF7BCFEDFF8F0
:100C4000B0070078800703D5DFF8B807FFF7B3FED9
:100C5000DFF89C070078C00703D5DFF8AC07FFF783
:100C6000AAFEDFF8A807FFF7A6FE0A480A4988424D
:100C700004D0DFF89C07FFF79EFE03E0DFF8F80BD7
:100C8000FFF799FE00F01AF804F0F6FEFEE7000008
:100C9000750400000000FF1F000000001004FF1F8B
:100CA0000C69000074690000C804FF1F2209FF1FBF
:100CB0007804FF1F74690000C469000080B5DFF884
:100CC00054070068000910F0070000280BD0022824
:100CD00013D00DD304281AD014D3062821D01BD347
:100CE000072823D027E0DFF83007FFF764FE26E06F
:100CF000DFF82807FFF75FFE21E0DFF82407FFF7A2
:100D00005AFE1CE0DFF81C07FFF755FE17E0DFF87E
:100D10001807FFF750FE12E0DFF81007FFF74BFE51
:100D20000DE0DFF80C07FFF746FE08E0DFF80407E8
:100D3000FFF741FE03E0DFF80007FFF73CFEDFF8B6
:100D4000D406006810F00F00022812D0042815D035
:100D5000052818D006281BD007281ED0082821D027
:100D6000092824D00A2827D00C282AD00E282DD0D4
:100D700031E0DFF8780AFFF71EFE30E0DFF8700A96
:100D8000FFF719FE2BE0DFF86C0AFFF714FE26E0F0
:100D9000DFF8640AFFF70FFE21E0DFF8600AFFF7D3
:100DA0000AFE1CE0DFF8D40AFFF705FE17E0DFF8C3
:100DB000D00AFFF700FE12E0DFF8C80AFFF7FBFDDC
:100DC0000DE0DFF8C40AFFF7F6FD08E0DFF8BC0A23
:100DD000FFF7F1FD03E0DFF8B80AFFF7ECFDDFF8FD
:100DE00034060068000B10F00F00002803D0022822
:100DF0000BD005D30EE0DFF89C0AFFF7DCFD0DE019
:100E0000DFF8940AFFF7D7FD08E0DFF8900AFFF754
:100E1000D2FD03E0DFF8880AFFF7CDFD00F07EF891
:100E2000DFF8800A0068000E10F00F00072806D0D7
:100E3000092809D00B280CD00F280FD013E0DFF8B9
:100E4000680AFFF7B8FD12E0DFF8600AFFF7B3FDAC
:100E50000DE0DFF85C0AFFF7AEFD08E0DFF8500AAE
:100E6000FFF7A9FD03E0DFF84C0AFFF7A4FDDFF868
:100E7000480A0068000204D5DFF8400AFFF79BFD2E
:100E800024E0DFF8200A0068000F002806D00728B9
:100E900009D009280CD00F280FD013E0DFF8200A62
:100EA000FFF789FD12E0DFF81C0AFFF784FD0DE073
:100EB000DFF8140AFFF77FFD08E0DFF80C0AFFF700
:100EC0007AFD03E0DFF8040AFFF775FDDFF8000A9A
:100ED0000068000B10F00F00052806D0072809D085
:100EE00008280CD009280FD013E0DFF8E809FFF735
:100EF00062FD12E0DFF8E009FFF75DFD0DE0DFF8CD
:100F0000DC09FFF758FD08E0DFF8D409FFF753FDCF
:100F100003E0DFF8D009FFF74EFD01BDF8B5DFF8BB
:100F2000C80903210170DFF8C40900210170DFF84E
:100F3000C00900210170DFF8BC0900210170DFF851
:100F4000B80901210170DFF8B40980210170DFF8D0
:100F5000AC0900780006FAD5DFF8A409007804008F
:100F6000DFF8A00900780500DFF89C09007806008A
:100F7000DFF8980900780700FFB20097F6B2330057
:100F8000EDB22A00E4B22100DFF88409FFF713FD77
:100F9000DFF8540903210170DFF8500900210170C6
:100FA000DFF84C0900210170DFF8480904210170C5
:100FB000DFF8440901210170DFF840098021017048
:100FC000DFF8380900780006FAD5DFF83409007830
:100FD0000400DFF8300900780500DFF82C090078FC
:100FE0000600DFF8280900780700FFB20097F6B284
:100FF0003300EDB22A00E4B22100DFF81809FFF750
:10100000DAFCDFF8F808FF210170F1BD80B5DFF8E8
:101010000809006850F47850DFF8FC180860642074
:1010200001F090FCDFF8AC130860DFF8A80300685B
:101030004FF47A714843DFF8E4180860DFF8DC0801
:101040000068DFF8DC180968C1F30361491CB0FBD4
:10105000F1F0DFF8D01808605FF4E131012002F010
:10106000F5F801BD704780B5012301221021012050
:1010700001F0B4FB012301221121012001F0AEFB9C
:101080000E21012000F0D8FE01BD10B5DFF8980850
:10109000006850F40030DFF89018086000F0CEF9D6
:1010A000DFF88408006850F48030DFF87C180860AE
:1010B00000F0C4F9DFF87008006830F40030DFF8A1
:1010C0006818086000F0BAF9DFF85C08006830F4CE
:1010D0008030DFF8541808607F200400E4B2012C4F
:1010E00015D300F0ABF9DFF84008006850F4803009
:1010F000DFF83418086000F0A1F9DFF82C08006868
:1011000030F48030DFF820180860641EE6E700F055
:1011100095F9DFF81408006850F48030DFF80818FB
:10112000086000F08BF9DFF80008006830F48030C8
:10113000DFF8F417086010BD38B50400DFF8E807E1
:10114000006850F40030DFF8E017086000F076F92E
:10115000DFF8D407006850F48030DFF8CC1708605F
:1011600000F06CF9DFF8C007006830F40030DFF8F9
:10117000B817086000F062F900220E21012000F08B
:101180007FFF2070641CDFF8A007006830F4803017
:10119000DFF8941708607F200500EDB2012D1CD305
:1011A00000F04CF9DFF88007006850F48030DFF879
:1011B0007817086000F042F900220E21012000F0AB
:1011C0005FFF2070641CDFF86007006830F4803037
:1011D000DFF8541708606D1EDFE700F02FF9DFF825
:1011E0004807006850F48030DFF83C17086000F0D2
:1011F00025F9DFF83407006830F48030DFF828176D
:10120000086031BD80B5DFF84818802000F0B9F8DB
:10121000DFF840180880DFF840080078DFF83C1855
:1012200009780843C0B200284AD1DFF834080078B2
:1012300000280BD0DFF8280800210170DFF824080F
:101240000078401CDFF81C18087039E0DFF8180837
:10125000007800280BD0DFF8100800210170DFF8BB
:1012600004080078801CDFF8FC17087028E0DFF81D
:10127000E407B0F90000552807DADFF8E80700783E
:10128000C01CDFF8E01708701AE0DFF8C807B0F9F3
:101290000000642807DADFF8CC070078801CDFF84C
:1012A000C41708700CE0DFF8AC07B0F90000822822
:1012B00006DADFF8B0070078401CDFF8A8170870DE
:1012C000DFF89007B0F90000F62807DBDFF8940795
:1012D0000078401FDFF88C17087037E0DFF87407DC
:1012E000B0F90000EF2807DBDFF878070078001F6F
:1012F000DFF87017087029E0DFF85807B0F9000030
:10130000E02807DBDFF85C070078C01EDFF8541721
:1013100008701BE0DFF83C07B0F90000CE2807DBBF
:10132000DFF840070078801EDFF8381708700DE0FE
:10133000DFF82007B0F90000B52807DBDFF8240745
:101340000078401EDFF81C170870FFE7DFF814076D
:1013500000781A2803D3DFF80C071A210170DFF890
:1013600004070078022803D2DFF8F8060121017093
:10137000DFF8F0060078D0F12400DFF8CC17087011
:1013800001BD10B40200002000242300DBB2D2B261
:10139000934205D20C7850FA84F0491C5B1CF5E7A7
:1013A000DFF820482080C009C0B210BC70470000A0
:1013B00008ED00E0986A000080E200E000E100E053
:1013C00084E200E004E100E088E200E008E100E0FF
:1013D000286C0000CC04FF1F4C04FF1F106A0000A3
:1013E00000E00740BC6E0000C86C00009C6F00006D
:1013F00001E00740CC6E00001C6E00001C6D000078
:10140000346D0000E46C0000A86F0000486C000020
:10141000B46F000024800440D86F0000E06F00002B
:10142000E86F0000F06F0000F86F0000007000002F
:101430000870000010700000C86B000000BF00BF03
:1014400070472DE9F84F04000D0016001F00DFF86B
:10145000D40400684FF47A7148435FEA5008E4B25C
:10146000002C0DD0E4B2012C02D0E4B2022C02D147
:10147000EDB2022D04D33821DFF86007FEF7EAFF52
:101480005FEA5800B04204D23921DFF85007FEF776
:10149000E1FF5FEA1840B0FBF6F08146002082468B
:1014A0001FFA89F959FA0AF0012802DB1AF1010A38
:1014B000F6E74FF47A70864201D21AF1010A38FA3F
:1014C0000AF0B0FBF6F081461FFA89F919F1010024
:1014D00000FB07F04FF47A71B0FBF1F08346E4B201
:1014E000002C05D0022C00F0B880C0F08C80DCE02D
:1014F000DFF85807006850F08070DFF85017086078
:10150000EDB2002D0BD0022D26D016D3042D40D0E5
:1015100031D3062D59D04AD3072D64D071E0DFF8BE
:10152000F803006850F40060DFF8EC130860DFF89F
:1015300020074FF48061016064E0DFF8DC0300689D
:101540004FF400710843DFF8D0130860DFF8040798
:101550004FF44071016055E0DFF8BC0300684FF4C0
:1015600000710843DFF8B0130860DFF8EC064FF4B1
:101570004071016046E0DFF8A003006850F40060AD
:10158000DFF894130860DFF8D4064FF4806101603F
:1015900038E0DFF88403006850F48050DFF87813F7
:1015A0000860DFF8BC064FF4806101602AE0DFF8D4
:1015B0006803006850F48050DFF85C130860DFF8BF
:1015C000F0064FF4806101601CE0DFF84C03006816
:1015D00050F48050DFF840130860DFF8D8064FF46D
:1015E000806101600EE0DFF83003006850F4805045
:1015F000DFF824130860DFF8C0064FF48061016053
:1016000000E0F1E051E0DFF84406006850F00070BF
:10161000DFF838160860EDB2002D02D0012D0DD094
:1016200019E0BD4800684FF400710843BA490860EA
:10163000DFF8AC064FF4407101600DE0B648006879
:101640004FF400710843B4490860DFF898064FF47E
:101650004071016000E0C7E027E0DFF88C06006819
:1016600050F08070DFF880160860EDB2002D02D0D7
:10167000012D0CD017E0A848006850F48060A649FE
:101680000860DFF868064FF4407101600CE0A24882
:10169000006850F48060A0490860DFF854064FF4F9
:1016A0004071016000E09FE0FFE7EDB2E4B2DFF8D7
:1016B000440650F8240010EBC500EDB2E4B2DFF8A8
:1016C000341651F8241011EBC501C96831F004013A
:1016D000C160EDB2E4B2DFF81C0650F8240010EB54
:1016E000C5002821C160E4B2DFF8080650F82400E4
:1016F000406D50F00400E4B2DFF8F81551F8241002
:101700004865E4B2DFF8EC0550F82400002141669A
:10171000E4B2DFF8E00550F824000021C165E4B22E
:10172000DFF8D00550F824000021C166E4B2DFF8EC
:10173000C40550F8240000210167E4B2DFF8B405C5
:1017400050F82400D0F8800040084000E4B2DFF8F0
:10175000A41551F82410C1F88000E4B2DFF8940514
:1017600050F824000021C0F89010E4B2DFF884059E
:1017700050F824000021C0F89410E4B2DFF874059A
:1017800050F824000021C0F89810E4B2DFF8640596
:1017900050F824005FFA8AFA1AF0070151F0280184
:1017A0000160E4B2DFF84C0550F824001FFA89F913
:1017B000C0F80890E4B2DFF83C0550F8240000219E
:1017C000C164EDB2E4B2DFF82C0550F8240010EB50
:1017D000C5001FFA8BFBC0F810B0E4B2DFF81405A7
:1017E00050F8240000214160BDE8F18FDC6E00005C
:1017F000EC6E0000FC6E00000C6F00001C6F00001F
:101800002DE9F04104000D001600E4B2002C0ED0CA
:10181000E4B2012C02D0E4B2022C02D1EDB2022DCE
:1018200005D340F28111DFF8B403FEF713FEB6F5DD
:101830007A7F05D94FF4C171DFF8A003FEF70AFEE5
:10184000E4B2DFF8B00450F824008068804618F154
:10185000010000FB06F04FF47A71B0FBF1F00700D5
:10186000EDB2E4B2DFF88C0450F8240010EBC500B0
:101870000761BDE8F0810000C06F00002C6F000020
:101880003C6F00004C6F00005C6F00006C6F00004C
:10189000706B0000306E0000446E0000586E000057
:1018A000586A00004C8004404C6D0000646D0000DC
:1018B0007C6D0000686C0000508004407C6F00006C
:1018C000946D0000AC6D0000C46D0000886C0000D9
:1018D000007004406C6E0000806E0000946E00008A
:1018E000A86E0000006D00000700024006000240E4
:1018F00005000240040002400F00024000000240C8
:101900000B0002400A0002400900024008000240A9
:10191000F06B0000A86C000038800440C804FF1F72
:1019200044800440D004FF1F40F00F4080B50123E5
:1019300001220F21002000F051FF0123012210217C
:10194000022000F04BFF012301221121022000F0B0
:1019500045FF012301221221022000F03FFF01BDBB
:1019600080B5DFF8C8048068006830F48030DFF8A4
:10197000BC1489680860DFF8B4048068006850F41B
:101980008020DFF8A81489680860642000F09DFFBB
:10199000DFF898048068006830F40030DFF88C14B9
:1019A00089680860DFF884048068006850F480303B
:1019B000DFF8781489680860642000F086FFDFF89B
:1019C0006C048068006830F48020DFF86014896857
:1019D0000860DFF858048068006850F40030DFF8D1
:1019E0004C1489680860642000F06FFF01BD80B569
:1019F000DFF83C04B0F9000000280FD0DFF8300415
:101A0000B0F9000040F6B931884207DADFF8200467
:101A1000B0F9000040F2DC51884202DAFFF7A0FF83
:101A2000E6E7DFF81004B0F9000000280BD0DFF87B
:101A30000404B0F90000C92805DADFF8F803B0F9AA
:101A400000005A2802DAFFF78BFFEAE701BD000029
:101A5000D404FF1FD808FF1F1209FF1F0E09FF1F24
:101A60001509FF1FFD08FF1F1709FF1F70B50400B0
:101A70000D00DFF80806006830F04000DFF8FC15C4
:101A80000860DFF8F805006830F01000DFF8EC15AA
:101A900008602000C0B200F097F806002800C0B22D
:101AA00000F092F8DFF8D405006850F01000DFF87D
:101AB000CC1508603000C0B270BD38B50400DFF846
:101AC000BC05006830F04000DFF8B0150860DFF8B2
:101AD000AC05006830F01000DFF8A01508602000A9
:101AE000C0B200F071F8FF2000F06EF80500DFF8DA
:101AF0008C05006850F01000DFF8801508602800A1
:101B0000C0B232BDF8B504000D001600DFF86C0558
:101B1000006830F01000DFF8641508602000C0B2E3
:101B200000F052F8070032002900012001F09CFA71
:101B3000DFF84805006850F01000DFF84015086035
:101B40003800C0B2F2BD00000009FF1F2DE9F041CE
:101B500004000D001600DFF82405006830F0400096
:101B6000DFF818150860DFF81405006830F0100081
:101B7000DFF808150860002080465FFA88F8F6B2A2
:101B8000B04507D25FFA88F8FF2008F8050018F181
:101B90000108F2E72000C0B200F016F80700F6B224
:101BA00032002900012001F0D4FADFF8D0040068E7
:101BB00050F01000DFF8C41408603800C0B2BDE86F
:101BC000F0810000DA08FF1F01B5012200A9012001
:101BD00001F0BFFA9DF8000002BD0000086B000094
:101BE00080B5DFF8AC05006800282CD00720FFF78F
:101BF00064FFDFF848160870DFF8400601782720F8
:101C0000FFF734FFFF21E120FFF730FFDFF82C065C
:101C10000078800604D5DFF82C060068002808D17B
:101C2000DFF86C0500210160DFF818060021016073
:101C300009E0DFF85C05006800F21E00DFF85015CF
:101C4000086000F00FF801BD000000003C80044077
:101C500004B00440109004401490044010B00440BC
:101C600010C0044080B5DFF8DC05006800281DD0F6
:101C7000DFF80804006830F04000DFF80014086066
:101C80001E22DFF80C050168A020FFF73BFFDFF8FC
:101C9000EC03006850F04000DFF8E0130860DFF864
:101CA000A4050068401EDFF89C15086001BD000017
:101CB00014C0044018C004401CC0044080B5DFF8C4
:101CC00080050078012802D1FFF78AFF06E0DFF8DF
:101CD00070050078022801D100F00EF801BD000067
:101CE00020900440249004403080044048A00440E8
:101CF0004CA004401004FF1F10B5DFF898040068E2
:101D000030F04000DFF88C1408600720FFF7D5FEA4
:101D100004002100C9B22720FFF7A8FEDFF8BC05A8
:101D2000007802280CD1FF21E220FFF79FFEDFF8A8
:101D30006404006850F04000DFF8581408603AE08E
:101D4000600630D51E22DFF8980500781E21DFF8E6
:101D5000943501FB00316120FFF7F8FEFF21E220FE
:101D6000FFF784FEDFF878050078401CDFF8701577
:101D70000870DFF86C050078142803D3DFF86005DD
:101D800000210170DFF858050078DFF85C1509784C
:101D9000884204D1DFF844050221017003E0DFF836
:101DA0003C0501210170DFF8EC03006850F04000B1
:101DB000DFF8E013086010BD38B504000D00DFF84F
:101DC000A407006850F40000DFF898170860DFF8F7
:101DD0009807006880088000DFF88C170860E4B27C
:101DE0002001DFF888174550E4B2DFF8800710EBD8
:101DF0000410C06850F00100E4B2DFF8701711EB76
:101E00000411C860E4B2DFF8640710EB04108068C6
:101E100050F00300E4B2DFF8541711EB04118860AE
:101E2000E4B214F14400FEF74BFE31BD2404FF1F61
:101E3000E408FF1FE608FF1F38B504000D00E4B2F8
:101E4000002C05D1EDB2082D02D3EDB2132D0DD328
:101E5000E4B2012C05D1EDB2042D02D3EDB2122D66
:101E600004D32221DFF80807FEF7F4FAE4B2002CCD
:101E700003D0012C00F08380FFE0DFF8E806006863
:101E800050F00060DFF8DC160860DFF8E806006854
:101E900030F09000DFF8DC160860DFF8D80600218B
:101EA0000160EDB22800083801280CD9801E0128F5
:101EB0001BD9801E01282BD9801E01283AD9C01EAB
:101EC000012849D959E0DFF8B006006850F4806075
:101ED000DFF8A4160860EDB2A80000F1804010F50C
:101EE0009420002140F8201C48E0DFF88C060068B0
:101EF0004FF400710843DFF880160860EDB2A800C7
:101F000000F1804010F59220002140F80C1C35E0D3
:101F1000DFF86406006850F48060DFF85C16086043
:101F2000EDB2A80000F1804010F59420002140F8A7
:101F3000281C23E0DFF84006006850F40060DFF85A
:101F400038160860EDB2A80000F1804010F5962028
:101F5000002140F8381C11E0DFF81C06006850F43E
:101F60000050DFF814160860EDB2A80000F18040C0
:101F700010F59A200021C16100E07EE07DE0DFF8ED
:101F8000FC05006850F00060DFF8F0150860DFF82D
:101F9000E405006830F41040DFF8D8150860DFF879
:101FA000D40500210160EDB22800001F03280BD9E1
:101FB000001F01281AD9801E032829D9001F0128D3
:101FC00038D9C01E48D057E0DFF8AC05006850F49F
:101FD0000050DFF8A4150860EDB2A80000F18040C1
:101FE00010F59A20002140F8101C45E0DFF8880524
:101FF000006850F48060DFF880150860EDB2A8003A
:1020000000F1804010F59420002140F8201C33E0BE
:10201000DFF86405006850F48060DFF85C15086044
:10202000EDB2A80000F1804010F59420002140F8A6
:10203000181C21E0DFF84005006850F48060DFF8EC
:1020400038150860EDB2A80000F1804010F594202A
:10205000002140F8181C0FE0DFF81C0500684FF461
:1020600000710843DFF810150860EDB2DFF864076F
:10207000002140F82510FFE7FFE731BD00F10F40D8
:10208000F8B504000D0016000027E4B2002C05D1BD
:10209000EDB2082D02D3EDB2132D0DD3E4B2012C15
:1020A00005D1EDB2042D02D3EDB2122D04D3872158
:1020B000DFF8BC04FEF7CEF93200D2B22900C9B273
:1020C0002000C0B200F012F9E4B2DFF80C0750F8BB
:1020D000240000680006F7D5E4B2DFF8FC0650F8EB
:1020E000240000690700E4B2DFF8EC0650F8240091
:1020F000006830F08000E4B2DFF8DC1651F82410FC
:102100000860380080B2F2BDF8B504000D0016007A
:102110000027E4B2002C05D1EDB2082D02D3EDB2B8
:10212000132D0DD3E4B2012C05D1EDB2042D02D351
:10213000EDB2122D04D39421DFF83404FEF78AF9AE
:102140003200D2B22900C9B22000C0B200F0F9F8C2
:10215000E4B2DFF8840650F8240000680006F7D5E2
:10216000E4B2DFF8740650F8240000690700E4B216
:10217000DFF8640650F82400006830F08000E4B214
:10218000DFF8541651F824100860380080B2F2BD10
:10219000DC05FF1F00F10F402DE9F04705000E00A0
:1021A0001700EDB2002D05D1F6B2082E02D3F6B21B
:1021B000132E0DD3EDB2012D05D1F6B2042E02D3AC
:1021C000F6B2122E04D3AD21DFF8A403FEF742F9D4
:1021D0003A00D2B23100C9B22800C0B2FFF750FFB6
:1021E00080463A00D2B23100C9B22800C0B2FFF72F
:1021F00047FF81463A00D2B23100C9B22800C0B2CE
:10220000FFF73EFF04001FFA89F91FFA88F8C1455D
:1022100001D2C24600E0CA461FFA8AFAA4B2A24519
:1022200001D2D04606E01FFA88F8A4B2A04501D238
:10223000A046FFE7404680B2BDE8F0871E09FF1FB9
:102240001D09FF1FE005FF1FF8B504000D00160073
:102250001F003200D2B22900C9B22000C0B2FFF77D
:1022600053FFDFF8AC160880F1BD2DE9F8430400F8
:102270000D0016001F005FF00009E4B2002C05D12C
:10228000EDB2082D02D3EDB2132D0DD3E4B2012C23
:1022900005D1EDB2042D02D3EDB2122D04D3FC21F1
:1022A000DFF8CC02FEF7D6F8B8465FFA88F8B8F146
:1022B000010F0DD33200D2B22900C9B22000C0B242
:1022C000FFF7DEFE19FA80F08146B8F10108ECE76D
:1022D000FFB299FBF7F000B2BDE8F2832109FF1FBE
:1022E0002009FF1FE405FF1F1F09FF1F70B5040031
:1022F0000D00160015F01F0050F04000DFF8141616
:102300000872B00010F00C0050F05000DFF8041616
:102310000870DFF8000604214170DFF8F80541F28B
:1023200034214180DFF8EC0545F278618180DFF8E7
:10233000E415E4B2DFF8A00450F8240000F030F80F
:1023400070BD70B504000D00160015F01F0050F0B0
:102350004000DFF8C0150872B00010F00C0050F01B
:102360005000DFF8B0150870DFF8A80504214170AF
:10237000DFF8A0050D21C171DFF8980541F2342185
:102380004180DFF8900545F278618180DFF884159F
:10239000E4B2DFF8440450F8240000F001F870BD06
:1023A0000A7882604A78C2604A8882618A88C261FB
:1023B0008A790262CA794262CA6802650A7A026050
:1023C0004A7A4260704780B5012300220C21022026
:1023D00000F004FA012300220D21022000F0FEF992
:1023E000012300220E21022000F0F8F9012300222F
:1023F0000F21022000F0F2F901BDDFF81C158968F9
:102400000969090B11F00F010800C0B2002817D0AC
:10241000022820D019D3042829D022D3062832D06C
:102420002BD308283BD034D30A2848D03DD30C28DE
:1024300059D04ED30E286AD05FD30F2871D079E0DF
:10244000DFF8D81400220A6074E0DFF8D014DFF857
:10245000D0240A606EE0DFF8C414DFF8C8240A60F4
:1024600068E0DFF8B814DFF8C0240A6062E0DFF843
:10247000AC14DFF8B8240A605CE0DFF8A014DFF8E1
:10248000B0240A6056E0DFF89414DFF8A8240A604C
:1024900050E0DFF888145FF083420A604AE0DFF81A
:1024A0007C14DFF894240A6044E0DFF87014DFF84D
:1024B0008C240A60DFF8041901220A703AE0DFF880
:1024C0005C14DFF87C240A60DFF8F01801220A703F
:1024D00030E0DFF84814DFF850240A60DFF8DC1839
:1024E00001220A7026E0DFF83414DFF844240A6081
:1024F000DFF8C81801220A701CE0DFF820145FF032
:1025000083420A60DFF8B41801220A7012E0DFF893
:102510000C14DFF89C270A60DFF8A01801220A706B
:1025200008E0DFF8F813DFF88C270A60DFF88C1872
:1025300001220A707047000080B54FF4FA7000F075
:1025400001F801BD0023190081420AD2DFF8783872
:102550001B681A00002A02D000BF521EFAE7491C6D
:10256000F2E770473C800440007003400071034074
:102570003C6B0000188004403880044030800440E8
:102580002DE9F84305000E00170098465FF000099A
:102590005FFA89F9B9F1000F01D101240EE05FFA69
:1025A00089F9B9F1010F01D1022407E05FFA89F935
:1025B000B9F1020F01D1042400E01024B7F5004F57
:1025C00002D347F6FF700700EDB2DFF8700940F85C
:1025D0002570DFF8EC07006850F00200DFF8E01724
:1025E0000860DFF8E007006850F00200DFF8D41759
:1025F0000860EDB26801DFF8D417DFF844294250D3
:10260000EDB2680100F1804010F51040DFF830199C
:102610000161EDB2680100F1804010F51040002129
:102620008180EDB2680100F1804010F5104000217A
:1026300081825FFA89F95FEA092010F4E0605FFAAD
:1026400089F919F007010843EDB2690101F18041F0
:1026500011F51041C880EDB2680100F1804010F51D
:10266000104039004904490CC182EDB2680100F103
:10267000804010F510403900C905C90DC183DFF84D
:102680005007006830F08000DFF844170860EDB2B2
:10269000680100F1804010F51040E4B28460EDB2B2
:1026A000680100F1804010F510407942C160EDB240
:1026B000680100F1804010F5104000218161EDB209
:1026C000680100F1804010F510400A218183F6B2C4
:1026D0007009313050F08000EDB2DFF8AC1768546B
:1026E000DFF8A80700684FF40071F6B27209914054
:1026F0000843DFF898170860F6B27011DFF8181277
:1027000051F82000F6B27111DFF80C2252F82110B6
:102710004969012216F01F039A4091434161F6B2C4
:1027200016F01F00F6B27111DFF80C2852F82110D4
:102730005FFA88F818F003025FFA88F85FEA9813E6
:10274000DBB253EA02424FF480731A4341F820206F
:10275000F6B2002E01D0012000E00020F6B2711187
:102760006D4A52F82110F6B272116B4B53F82220C9
:102770005269012313FA00F032EA00004861DFF8E1
:10278000E00800680121A9400843DFF8D418086078
:10279000EDB22800FEF794F9BDE8F1830100C9B25B
:1027A000DFF8980750F82100C9B24A0102F18042CF
:1027B00012F51042D28A801A7047C0B2410101F16D
:1027C000804111F51041C0B2DFF8702752F8202087
:1027D000CA827047009004401C04FF1FF8B5040033
:1027E0000D0016001F00EDB2202D02D2FFB2022F05
:1027F00004D32421DFF86C08FDF72CFEEDB2E4B21F
:10280000DFF8340750F82400F6B24FF480713143FA
:1028100040F82510F00705D5F6B2032E02D0F6B227
:10282000132E0DD1E4B23C4850F824004069012138
:10283000A9408843E4B2384951F8241048612AE09D
:10284000E4B2354850F8240040690121A94008430A
:10285000E4B2314951F824104861FFB2012F0DD183
:10286000E4B22D4850F8240000680121A940084333
:10287000E4B2294951F8241008600CE0E4B226487B
:1028800050F8240000680121A9408843E4B222499D
:1028900051F824100860F1BD38B504000D00EDB208
:1028A000202D04D36021DFF8BC07FDF7D3FDE4B28F
:1028B000194850F8240000680121A9404840E4B2BA
:1028C000154951F82410086031BDDFF8C0150968BA
:1028D00051F00101DFF8B4251160DFF860190860DC
:1028E000DFF85C1905220A60DFF8581901220A6036
:1028F000DFF8501909680906FAD5DFF848190968A0
:1029000049084900DFF83C291160704700000000C9
:10291000E208FF1F3C08FF1F2404FF1FA408FF1F3D
:102920000000E04000002041000040410000504114
:102930000000604100007041000088410000C0407C
:102940000000104138B50400E4B2002C00F03B81D7
:10295000E4B22000302820D0322827D060282ED0A2
:10296000642835D06E283CD0782843D07D284AD0C2
:10297000822851D08C2858D096285FD0A02866D0C5
:10298000AA286DD0B42874D0C8287BD0E12800F0E4
:102990008280FA2800F088808FE0DFF8AC081821E8
:1029A0000170DFF8A408002141708AE0DFF8980880
:1029B00018210170DFF890080121417081E0DFF8F3
:1029C000880818210170DFF880081821417078E02C
:1029D000DFF8740818210170DFF86C081A214170C3
:1029E0006FE0DFF8640818210170DFF85C081F2130
:1029F000417066E0DFF8500813210170DFF84808E5
:102A0000182141705DE0DFF8400813210170DFF804
:102A100038081A21417054E0DFF82C0813210170A6
:102A2000DFF824081C2141704BE0DFF81C080E2160
:102A30000170DFF814081221417042E0DFF8080845
:102A40000E210170DFF800081521417039E0DFF830
:102A5000F8070E210170DFF8F0071821417030E00F
:102A6000DFF8E4070E210170DFF8DC071B2141705D
:102A700027E0DFF8D4070E210170DFF8CC071E2114
:102A800041701EE0DFF8C0070C210170DFF8B807C5
:102A90001C21417015E0DFF8B0070B210170DFF851
:102AA000A8071E2141700CE0DFF89C070A21017085
:102AB000DFF894071F21417003E06420FFF742FF15
:102AC000F5E0DFF8840700218170E4B2332C04D2F2
:102AD000DFF874070021C1701BE0E4B2652C04D25A
:102AE000DFF864070121C17013E0E4B2972C04D22F
:102AF000DFF854070221C1700BE0E4B2C92C04D204
:102B0000DFF844070321C17003E0DFF83C070F2121
:102B1000C170DFF83407DFF83017C9780171E4B20B
:102B20001A2C04D2DFF82007002141714BE0E4B2F7
:102B3000332C04D2DFF810070121417143E0E4B2E5
:102B40004C2C04D2DFF80007022141713BE0E4B2D3
:102B5000652C04D2DFF8F0060321417133E0E4B2C2
:102B60007E2C04D2DFF8E006042141712BE0E4B2B0
:102B7000972C04D2DFF8D0060521417123E0E4B29E
:102B8000B02C04D2DFF8C006062141711BE0E4B28C
:102B9000C92C04D2DFF8B0060721417113E0E4B27A
:102BA000E22C04D2DFF8A006082141710BE0E4B268
:102BB000FB2C04D2DFF890060921417103E0DFF815
:102BC00088060F214171DFF880064078183080B206
:102BD00032214843DFF870160978491C89B290FB0E
:102BE000F1F00500DFF84C0800210170DFF848081B
:102BF000006850F08050DFF840180860DFF83C08AB
:102C0000007850F08000DFF834180870DFF85008C2
:102C100098210170DFF894080078C006FAD4DFF834
:102C20008C080078C0F38100C0B20228F7D1DFF829
:102C30001806007810F01F00DFF828180870DFF879
:102C4000280800210170DFF800064379DFF8F80555
:102C50000279DFF8F405C178DFF8EC058078FDF73C
:102C6000F5FBDFF8E405407810F01F0050F040005D
:102C7000DFF8F4170870DFF8340800788006FAD51A
:102C8000DFF8280800784006FAD5DFF8D407007886
:102C900010F03F00DFF8C8170870DFF81008007860
:102CA000C0F38100C0B20328F7D12800C0B232BD02
:102CB00000009041000098417448006850F4806022
:102CC00072490860DFF8C0074FF480710160DFF8D7
:102CD000BC074FF480710160DFF84C080C210160E3
:102CE0007047000000BF00BF00BF00BF00BF00BFB3
:102CF00000BF00BF704780B5DFF83008006830F0D3
:102D00000400DFF828180860DFF82008006850F099
:102D10000800DFF818180860FFF7E4FFDFF80C0878
:102D2000006850F00400DFF804180860FFF7DAFFCD
:102D3000DFF8F807006830F00800DFF8F0170860E7
:102D4000FFF7D0FFDFF8E407006830F00400DFF899
:102D5000DC17086001BD000080B5DFF8D00700680F
:102D600030F00400DFF8C4170860FFF7BBFFDFF89E
:102D7000BC07006830F00800DFF8B0170860FFF704
:102D8000B1FFDFF8A807006850F00400DFF89C17D7
:102D90000860FFF7A7FFDFF89407006850F008000D
:102DA000DFF888170860FFF79DFFDFF880070068ED
:102DB00030F00400DFF87417086001BD0609FF1F3A
:102DC000408004403C800440D004FF1F009000403D
:102DD0000080004038B5040000200500EDB2082D49
:102DE00033D2DFF84807006830F00400DFF83C1702
:102DF0000860E4B214FA05F0000608D5DFF82C07E5
:102E0000006850F00800DFF82417086007E0DFF8DA
:102E10001C07006830F00800DFF810170860FFF7A3
:102E200061FFDFF80807006850F00400DFF8FC16C7
:102E30000860FFF757FFDFF8F406006830F0040081
:102E4000DFF8E81608606D1CC8E7FFF74BFFDFF8F6
:102E5000DC06006850F00800DFF8D0160860FFF7C5
:102E600041FFDFF8C806006850F00400DFF8BC1628
:102E70000860FFF737FFDFF8B406006830F00400A1
:102E8000DFF8A816086031BD001002403880044009
:102E900038B500200500DFF89406006830F0040023
:102EA000DFF888160860FFF71DFFDFF8800600686E
:102EB00050F00800DFF874160860DFF86C06006850
:102EC00030F00800DFF86016086000200400E4B26B
:102ED000082C1ED2FFF706FFDFF85006006830F01E
:102EE0000400DFF848160860FFF7FCFEDFF83C0638
:102EF000006850F00400DFF834160860FFF7F2FEB7
:102F00006D00DFF82C060068000700D56D1C641CFE
:102F1000DDE7DFF81806006830F00400DFF80C1673
:102F20000860DFF80406006850F00800DFF8F815C4
:102F300008602800C0B232BD3804FF1F4C08FF1FD4
:102F40000C00044038B504006425FFF7D4FE382097
:102F5000FFF740FF2000C0B2FFF73CFFFFF7CBFEBA
:102F60003920FFF737FFFFF793FF0500FFF7F4FE67
:102F70002800C0B232BD38B504000D00FFF7BBFE1B
:102F80003820FFF727FF2000C0B2FFF723FF2800FB
:102F9000C0B2FFF71FFFFFF7DFFE31BD80B5FFF7BF
:102FA0008BFE10212A20FFF7E6FFFFF79BFEFFF7BD
:102FB00099FEFFF797FE00210E20FFF7DCFFFFF7D9
:102FC00091FEFFF78FFEFFF78DFE11212A20FFF7FC
:102FD000D2FFFFF787FEFFF785FEFFF783FE01BDF7
:102FE00000002DE9F843002500265FF000090027C6
:102FF0005FF000080D20FFF7A5FF804602200400C7
:10300000E4B2012C23D30520FFF79CFF0500062026
:10301000FFF798FFEDB250EA05208146EDB2802D12
:103020000ED30FFA89F97FEAA900401C5FEA8049B4
:103030005FEA99490FFA89F9D9F10000070002E027
:10304000C9F38D094F4606FA87F6641ED8E70220B9
:1030500096FBF0F0DFF834190880BDE8F18300003A
:103060000C800040D06A000070B40023C0B2DFF8CA
:10307000E85955F82050ED6AC0B2DFF8DC5955F830
:103080002050DFF8C066EE62C0B2DFF8CC5955F8C8
:1030900020502D6855F44065C0B2DFF8BC6956F881
:1030A00020603560C0B2DFF8B05955F82050ED6AA5
:1030B000AD03E1D400252B00551EAB4227D2C0B290
:1030C000DFF8945955F820505E5C56F000466E6368
:1030D000C0B2DFF8845955F82050ED6AAD03F7D53A
:1030E000C0B2DFF8745955F82050AD6B2C00C0B257
:1030F000DFF8645955F82050ED6A55F40035C0B238
:10310000DFF8546956F82060F5625B1CD4E7C0B262
:10311000DFF8445955F820505E5C56F000666E6347
:10312000C0B2DFF8345955F82050ED6AED00F7D5FC
:10313000C0B2DFF8245955F82050ED6AAD03F7D539
:10314000C0B2DFF8145955F82050AD6B2C0070BC9C
:10315000704730B40023C0B2DFF8FC4854F8204078
:10316000E46AC0B2DFF8F04854F82040DFF8D455E4
:10317000E562C0B2DFF8E04854F82040246854F417
:103180004064C0B2DFF8D05855F820502C60C0B26F
:10319000DFF8C44854F82040E46AA403E1D40024D2
:1031A0002300541EA34227D2C0B2DFF8AC4854F823
:1031B00020405D5C55F000456563C0B2DFF898487B
:1031C00054F82040E46AA403F7D5C0B2DFF8884879
:1031D00054F82040A46B5C54C0B2DFF87C4854F82B
:1031E0002040E46A54F40034C0B2DFF86C5855F85B
:1031F0002050EC625B1CD4E7C0B2DFF85C4854F8A6
:1032000020405D5C55F000656563C0B2DFF848485A
:1032100054F82040E46AA403F7D5C0B2DFF8384878
:1032200054F82040A46B5C54C0B2DFF82C4854F82A
:103230002040E46AE400F7D530BC70470800044041
:1032400004000440000004404C04FF1FF0B4C0B26E
:10325000002808D0022828D016D3042847D035D318
:10326000052857D069E0DFF8F4674FF440773760FE
:10327000DFF8EC674FF4407737606F4E366856F4EE
:1032800080666D4F3E6058E0DFF8D8674FF44077B6
:103290003760DFF8D4674FF440773760664E3668A2
:1032A00056F40066644F3E6047E0DFF854684FF420
:1032B00040773760DFF84C684FF4407737605E4EF8
:1032C000366856F480565C4F3E6036E0DFF838686A
:1032D0004FF440773760DFF834684FF44077376059
:1032E000554E366856F40056534F3E6025E0DFF8E1
:1032F00020684FF440773760DFF818684FF4407764
:103300003760DFF81468366856F48066DFF80878AE
:103310003E6012E0DFF804684FF440773760DFF872
:1033200000684FF440773760DFF8EC67366856F492
:103330000066DFF8E4773E60FFE7C0B2DFF8046BB9
:1033400056F82060F67816F0F306C0B2DFF8F47A8B
:1033500057F82070FE70C0B2DFF8E86A56F82060B7
:103360000027B770C0B2002801D1012600E0002676
:10337000C0B2012801D1012700E000273E43F6B288
:10338000002E07D0DFF89C6736684FF47A777E43CB
:10339000350006E0DFF8906736684FF47A777E43B1
:1033A00035000E01B5FBF6F63200C0B2DFF8946AC4
:1033B00056F82060367816F0E006340092B2160A0D
:1033C00016F01F062643C0B2DFF8787A57F820704F
:1033D0003E70C0B2DFF86C6A56F8206072706E0101
:1033E0000F01B6FBF7F692B2B6EB42163300C0B24D
:1033F000DFF8506A56F82060B67A16F0E00634001E
:10340000C0B2DFF8406A56F8206013F01F07274368
:10341000B772C0B2DFF82C6A56F82060F67856F022
:103420000C06C0B2DFF81C7A57F82070FE70F0BCB2
:1034300070470000014006403480044008C0074047
:10344000C0B2DFF8002A52F8202012791206F7D510
:10345000C0B2DFF8F02952F82020D1717047000087
:1034600000400640044006400540064080B500F09C
:103470000FF8DFF8240A00884FF6FE710840DFF8E5
:10348000181A088001BD000008A004400CA00440E8
:1034900072B6DFF8080A4CF220510180DFF8FC090F
:1034A0004DF62811018062B67047000006400640C4
:1034B000DFF87806DFF878160160DFF87806DFF8C5
:1034C00078160160DFF87406C0680069C0F38010E8
:1034D000002805D0DFF86806DFF86816018004E0F0
:1034E000DFF85C06DFF860160180DFF8EC08DFF833
:1034F000EC180160DFF8E808DFF8E8180160DFF891
:10350000E808DFF8E8180160DFF8E408DFF8E418FD
:103510000160DFF8E408DFF8E4180160DFF8E00894
:10352000DFF84C1C0160704754F00F4040F00F4032
:1035300050F00F40DFF8100900210170DFF80C098E
:1035400028210170DFF8080900210170DFF8040963
:1035500000210160DFF80009002101600020DFF890
:10356000FC180880DFF8F8180880DFF8F808002158
:1035700001600020DFF8F0180860DFF8F01808603C
:103580000020DFF8EC180860DFF8E8180860DFF8C2
:10359000E81808600020DFF8E4180860DFF8E01899
:1035A00008600020DFF8DC180860DFF8DC1808602D
:1035B0000020DFF8D8180880DFF8D4180880DFF87A
:1035C000D40800210160DFF8C40300210180DFF886
:1035D000D00800210180DFF8CC0800210180DFF84D
:1035E000C80800210160DFF8C40800210160DFF88D
:1035F000C00800210160DFF8BC0800210160002044
:10360000DFF8B4180860DFF8B41808600020DFF8AD
:10361000B0180860DFF8AC1808600020DFF8A818C0
:103620000870DFF8A8180870DFF8A408DFF8A418FD
:103630000160DFF8A40800210160DFF8A008002184
:103640000160DFF89C0800210170DFF89808002174
:103650000180DFF894080F210170DFF89008152130
:103660000170DFF88C0800210170DFF88808002164
:103670000170DFF8840800210170DFF88008002164
:103680000170DFF87C0800210170DFF87808002164
:103690000170DFF8740800210170DFF87008002164
:1036A0000180DFF86C0800210180DFF86808002144
:1036B0000180DFF864086E210180DFF860080021D6
:1036C0000170DFF85C0800210170DFF85808002164
:1036D00001700020DFF850180880DFF8501880B221
:1036E0000860DFF84C0800210170DFF8480800216D
:1036F0000170DFF8440800210170DFF84008002164
:103700000170DFF83C0800210170DFF83808002163
:103710000170DFF8340800210170DFF83008002163
:103720000170DFF82C0800210170DFF82808002163
:103730000170DFF8240800210170DFF8380A002149
:103740000170704700000A1A80B50023002204218E
:103750000320FFF743F80023002207210320FFF78F
:103760003DF8DFF8D803C068006900060BD4DFF825
:10377000CC03C0680069C00605D4DFF8FC095FF01F
:103780007F5101603CE0DFF8B403C0680069C00607
:103790000DD4DFF8A803C0680069C0F3C01000288A
:1037A00005D0DFF8D4095FF08041016028E0DFF840
:1037B0008C03C0680069C0F3001000280BD0DFF84C
:1037C0007C03C0680069000605D4DFF8AC095FF02F
:1037D0008141016014E0DFF86403C0680069C0F350
:1037E000C01000280CD0DFF85403C0680069C0F393
:1037F0000010002804D0DFF88009DFF8801901608C
:1038000001BD38B50420FEF7C9FF05000420FEF70E
:10381000D4FF0520FEF7C2FF04000520FEF7CDFF10
:10382000DFF848060068002102F058FA01D2A4B27D
:103830006442DFF834060068002102F04FFA01D23A
:10384000ADB26D42DFF8180600882018DFF81016B8
:103850000880DFF8080600882818DFF800160880BE
:1038600031BD2DE9F04104000D00DFF81409804658
:103870002000DFF8101902F043FA03D85FF07E5001
:10388000040008E02000DFF8001902F027FA02D255
:10389000DFF8F40804002800DFF8E81802F030FA36
:1038A00003D85FF07E50050008E02800DFF8D81844
:1038B00002F014FA02D2DFF8D00805002800002137
:1038C00002F01EFA15D24FF47A7201210020FDF7A2
:1038D00097FF2800414602F025FA02F08FFA070010
:1038E0004FF47A703FB2C21B02210020FDF788FF1F
:1038F00016E04FF47A7202210020FDF781FF95F067
:1039000000452800414602F00DFA02F077FA070060
:103910004FF47A703FB2C21B01210020FDF770FF07
:103920002000002102F0ECF915D24FF47A72012147
:103930000220FDF765FF2000414602F0F3F902F096
:103940005DFA06004FF47A7036B2821B0021022025
:10395000FDF756FF16E04FF47A7200210220FDF7C2
:103960004FFF94F000442000414602F0DBF902F0E2
:1039700045FA06004FF47A7036B2821B012102200C
:10398000FDF73EFFBDE8F08100000000E008FF1FEA
:1039900038B5DFF8D80400680500DFF8CC0400680B
:1039A00004002800002102F0ABF907D2DFF8DC07A1
:1039B0000068290002F044FA05000BE0280000210D
:1039C00002F08CF906D22800DFF8C017096802F06F
:1039D00079FA05002000002102F092F907D2DFF801
:1039E000AC070068210002F02BFA04000BE0200075
:1039F000002102F073F906D22000DFF89017096861
:103A000002F060FA04002800DFF8781702F078F975
:103A100002D85FF07E5005002800DFF86C1702F036
:103A20005DF902D2DFF8600705002000DFF85417C7
:103A300002F066F902D85FF07E5004002000DFF843
:103A4000481702F04BF902D2DFF83C0704002100CE
:103A50002800FFF706FF31BD5404FF1F18C00440C3
:103A60001CC004400CB0044010B0044038B5DFF86E
:103A700008040068DFF8FC13096802F023FADFF895
:103A8000F013096802F01EFA0400DFF8EC03006886
:103A9000DFF8E013096802F015FADFF8D4130968BB
:103AA00002F0CEF905002000DFF8D81602F028F960
:103AB00002D85FF07E5004002000DFF8CC1602F040
:103AC0000DF902D2DFF8C00604002800DFF8B416B2
:103AD00002F016F902D85FF07E5005002800DFF8EA
:103AE000A81602F0FBF802D2DFF89C060500DFF80A
:103AF0007C030460DFF870030560FFF749FF31BD08
:103B00000CC0044008C0044040B0044044B004402D
:103B100064D0044060D004402880044024D0044095
:103B200020D00440C804FF1FD004FF1FA405FF1FBE
:103B30001F856B3EA805FF1FD044583B2404FF1F80
:103B4000DE08FF1F50FBFFFF82FBFFFF2DE9F04166
:103B5000DFF8DC08DFF8DC1809680160C048B0F95C
:103B60000000BE49B1F900100818022190FBF1F0E5
:103B7000DFF8A0130880B948B0F900003230B84926
:103B8000B1F90010884204DADFF8780303210170EC
:103B900028E0B348B0F90000B049B1F9001032395B
:103BA000884204DADFF85C03012101701AE0AC48B6
:103BB000B0F90000A949B1F900101E3188420DDAB0
:103BC000A648B0F90000A649B1F900101E3188429C
:103BD00004DADFF830030221017003E0DFF8240388
:103BE0000421017000209D4908809D490880DFF86C
:103BF0002403B0F9000002F0E9F902000B00DFF83D
:103C00003808DFF8381802F0F7F902F0C7FA9549DA
:103C10000860DFF838030078002804D0DFF82C03B0
:103C20000021017077E0DFF8DC020078022848D13B
:103C3000DFF8CC020078002816D0DFF8C40200219B
:103C40000170DFF808030121017083485FF07E51A5
:103C50000160DFF8D8070068006830F40040DFF842
:103C6000CC170968086056E0A4480078002852D1B3
:103C70007748007800284ED07748006802F0D6FADE
:103C800002000B000020DFF8B81702F0F7FA02F08C
:103C900085FA714908606F480168DFF8DC04006844
:103CA00002F0CEF86C49096802F018F833D269487E
:103CB0000168DFF8C404006802F0C2F866490860D1
:103CC00029E08E480078002807D161480078002854
:103CD00003D08C480078012803D08A480078032854
:103CE00019D15D48006802F0A1FA02000B00002023
:103CF000DFF8501702F0C2FA02F050FA5649086095
:103D0000554800685349096801F0E8FF03D252485A
:103D1000504909680160504800680700380051495F
:103D2000096802F0CFF80400DFF808070460DFF844
:103D300004070068DFF8F816096802F0C3F8DFF836
:103D400008170860DFF8000701682748006801F0DD
:103D5000E9FF060020480068210001F0E3FF8046EB
:103D60001F480068210001F0DDFF05004948006898
:103D7000290002F065F84749086046480068DFF806
:103D8000CC1601F0BDFF03D84248DFF8C41601602D
:103D900040480068DFF8BC1601F0A0FF03D23D48A0
:103DA000DFF8B016016038483649096801603948C3
:103DB0000068414602F044F8310002F041F8314910
:103DC0000860304800683049096802F07BF82C49E7
:103DD0000860BDE8F08100006805FF1F1F85EB3D0E
:103DE0006C05FF1F6F12033C7005FF1FA69B44BCB0
:103DF000AC05FF1F96438B3CB005FF1F17B7D139A9
:103E0000B405FF1F30B52148008802F0B5FA1C49FF
:103E1000096801F087FF02F009FA0022DFF838365E
:103E200002F0BAFA04000D001748006802F0FEF92B
:103E300022002B0002F022FA02F0B0F90D490860CE
:103E400030BD00006004FF1F0809FF1F0709FF1FA6
:103E50000909FF1FA408FF1F5C05FF1FF608FF1FCD
:103E6000F408FF1FA008FF1F9008FF1F8C08FF1F0A
:103E70009C08FF1F9808FF1F9408FF1FBC08FF1F26
:103E80006405FF1FB008FF1FAC08FF1FFA08FF1FE3
:103E9000F808FF1FA808FF1F002005400E2005405E
:103EA000E208FF1FE408FF1F8405FF1F8C05FF1FAA
:103EB0008805FF1F9005FF1FB408FF1FB808FF1FEC
:103EC000C408FF1FC008FF1F0F09FF1F0A09FF1FBB
:103ED000D405FF1F0AD7233BCC05FF1FC005FF1FDA
:103EE0001009FF1FD808FF1FFD08FF1F0009FF1F53
:103EF000FE08FF1FFF08FF1FFC08FF1F1109FF1F1F
:103F00001209FF1F1609FF1F1809FF1FF008FF1FE6
:103F1000F208FF1FDC08FF1FEC08FF1F0109FF1F4D
:103F20001909FF1F1A09FF1FDA08FF1F5405FF1F99
:103F30000209FF1F1B09FF1F1C09FF1F0509FF1FA7
:103F40000609FF1F0309FF1F0409FF1F0B09FF1FBD
:103F50001409FF1F1309FF1F1509FF1F2DE9F34F58
:103F60008CB0DFF80845DFF808050790DFF8040596
:103F7000069000A8DFF80015102202F031FB08A817
:103F8000102102F059FB0125DFF8D004B0F9000040
:103F900002F0E8F901000C9801F094FF02F046F9F4
:103FA00002000B00DFF8B804DFF8B81402F024F8C0
:103FB00002F0F4F8DFF8C4140860DFF8C404B0F9C4
:103FC000000002F0CFF901000D9801F07BFFDFF84F
:103FD0009814096801F0A6FEDFF8A8140860DFF85D
:103FE000A4040068DFF8A014096801F06BFF210049
:103FF00001F098FEDFF89414096801F021FFDFF862
:104000008C1408600798019901F05CFF029901F097
:1040100059FF0890039890F000400990039890F0A1
:1040200000400A9006980B900898210001F07AFE53
:10403000009901F005FF00900998210001F072FE3F
:10404000019901F0FDFE01900A98210001F06AFE3D
:10405000029901F0F5FE02900B98210001F062FE3A
:10406000039901F0EDFE0390DFF810040068DFF81B
:104070001C14096801F026FF0490EDB2280002F03C
:104080007BF9009901F04EFE8046EDB2280002F067
:1040900073F9029901F046FE0590EDB2280002F096
:1040A0006BF9414601F03EFEDFF8E413096801F0C8
:1040B000C7FE83464046594602F0C2FA07000598FB
:1040C000594602F0BDFA0600C246EDB2280002F0E1
:1040D00053F9019901F026FE81463800514601F05E
:1040E00021FE0100009801F0EDFE009038004946E5
:1040F00001F018FE0100019801F0E4FE019030008B
:10410000514601F00FFE0100029801F0DBFE029023
:104110003000494601F006FE0100039801F0D2FE8E
:1041200003900498390001F0FDFDDFF86013096881
:1041300001F086FEDFF8541308600498310001F0A6
:10414000F1FDDFF84413096801F07AFEDFF8381357
:104150000860DFF830030068DFF82C13096801F00D
:10416000B1FEDFF8301308600EB0BDE8F08F00003C
:104170006F12833B1709FF1F6005FF1F0000C0403F
:1041800000007A440100803F000080BF5805FF1FF7
:1041900070B5BE480068C04901F0B2FD05D9BB4802
:1041A0000068BE4901F09AFD1DD2B848006890F041
:1041B000004002F03BF8BA4ABA4B01F01DFF040080
:1041C0000D00B448006890F0004002F02FF8B64AA5
:1041D000B64B01F011FF22002B0002F04FF801F066
:1041E000DDFF060010E1A9480068B14901F088FD33
:1041F00005D9A6480068AF4901F070FD1DD2A3485B
:10420000006890F0004002F011F8AB4AAB4B01F0AF
:10421000F3FE04000D009F48006890F0004002F09B
:1042200005F8A74AA74B01F0E7FE22002B0002F099
:1042300025F801F0B3FF0600E6E094480068A249C3
:1042400001F05EFD05D991480068A04901F046FDE6
:104250001DD28E48006890F0004001F0E7FF9C4AB4
:104260009C4B01F0C9FE04000D008A48006890F0E4
:10427000004001F0DBFF984A984B01F0BDFE2200A0
:104280002B0001F0FBFF01F089FF0600BCE07F4836
:104290000068934901F034FD05D97C4800689149D4
:1042A00001F01CFD1DD27948006890F0004001F03B
:1042B000BDFF8D4A8D4B01F09FFE04000D00754837
:1042C000006890F0004001F0B1FF894A894B01F08D
:1042D00093FE22002B0001F0D1FF01F05FFF0600EA
:1042E00092E06A480068844901F00AFD05D96748F0
:1042F0000068824901F0F2FC1DD26448006890F029
:10430000004001F093FF7E4A7E4B01F075FE0400F1
:104310000D006048006890F0004001F087FF7A4A85
:104320007A4B01F069FE22002B0001F0A7FF01F09B
:1043300035FF060068E055480068754901F0E0FC6B
:1043400005D952480068734901F0C8FC1DD24F4896
:10435000006890F0004001F069FF6F4A6F4B01F078
:104360004BFE04000D004B48006890F0004001F047
:104370005DFF6B4A6B4B01F03FFE22002B0001F00A
:104380007DFF01F00BFF06003EE0404800686649F3
:1043900001F0B6FC05D93D480068644901F09EFC77
:1043A0001DD23A48006890F0004001F03FFF604A9B
:1043B000604B01F021FE04000D003648006890F0CB
:1043C000004001F033FF5C4A5C4B01F015FE220017
:1043D0002B0001F053FF01F0E1FE060014E02B4832
:1043E000016891F000415648006801F09BFC040010
:1043F0002848016891F000415248006801F092FCA1
:10440000210001F01DFD06003000414901F078FC5B
:1044100002D84D48060006E030003E4901F05EFC3F
:1044200001D23C4806004948066070BD2404FF1FC5
:104430007805FF1F7405FF1F08AC1C5A643BAF3F93
:104440000000E03F0000E0BF7C05FF1F0100A0402E
:104450000000A0400000A0C000806940DE08FF1FEF
:104460005AD8D30E7F4D963F8005FF1F52499D3B82
:10447000A69B443B52499D398C6F00009405FF1F59
:10448000E408FF1F9C05FF1FA005FF1F8405FF1FF9
:104490009805FF1F8C05FF1F01003442000034C245
:1044A0001F85EB51B81ED53F7B14AE47E17A743FB0
:1044B00001001842000018C2295C8FC2F528D43FC1
:1044C0003BDF4F8D976E723F0100F0410000F0C15D
:1044D000E17A14AE47E1D23F76711B0DE02D703FBB
:1044E0000100A0410000A0C148E17A14AE47D13FCD
:1044F0009F3C2CD49AE66D3F01007041000070C1D2
:10450000F6285C8FC2F5D03F79E9263108AC6C3FC4
:1045100001002041000020C152B81E85EB51D03F60
:104520005F07CE1951DA6B3F0100C0400000C0C0E8
:104530005C8FC2F5285CCF3F462575029A086B3F19
:10454000A405FF1FA805FF1F000020419408FF1FBE
:104550002DE9F84F5FF0000B5FF0000ADFF8A40DC3
:104560000078002811D0DFF8A00D0068006850F432
:104570000040DFF8941D09680860DFF8880D00210D
:104580000170DFF8880D0121017000220421012053
:10459000FDF7BAFDDFF8781D0880DFF8740DB0F97B
:1045A0000000DFF8701D0988401A07003F20050051
:1045B000EDB27E2D50D2EDB2DFF8F80C285CDFF8BA
:1045C000581DB1F9001000B2884243DAEDB2681EFE
:1045D0004A2804D0EDB2681C80B24A281BD1DFF80B
:1045E000D40C90F84800DFF8301DB1F9001000B28B
:1045F00088420ADBDFF8BC0C90F84B00DFF8181D8E
:10460000B1F9001000B2884224DADFF8100D05700D
:104610000120824620E0EDB2DFF8980C281810F84F
:10462000010CDFF8F41CB1F9001000B288420BDB7A
:10463000EDB2DFF8800C28184078DFF8DC1CB1F907
:10464000001000B2884205DADFF8D00C05700120B6
:10465000824601E0AD1CABE73F200600F6B2032E18
:104660002BD3F6B2DFF84C0C305CDFF8AC1CB1F9A0
:10467000001000B288421EDAF6B2DFF8380C3018AB
:1046800010F8010CDFF8901CB1F9001000B288425C
:104690000BDBF6B2DFF81C0C30184078DFF8781C22
:1046A000B1F9001000B2884205DADFF8740C067028
:1046B0000120834601E0B61ED0E75FFA8AFABAF11C
:1046C000000F00F0CC805FFA8BFBBBF1000F00F015
:1046D000C680DFF8480C0078DFF8441C0978401ADF
:1046E000ADF80000BDF90000002848D1DFF8340C17
:1046F0000078002843D0DFF8BC0B90F82B0073281B
:1047000034D2DFF8B00B90F8530073282ED2DFF8C4
:10471000A40BC07D732829D2DFF8980B90F86700AE
:10472000732823D2DFF8000C0078401CDFF8F81B58
:104730000870DFF80C0C01210170DFF8EC0B007839
:104740000228C0F0F880DFF8E00B00210170DFF8EC
:10475000F40B01210170DFF8B00B0068006830F441
:104760000040DFF8A41B09680860E4E0DFF8D00B24
:1047700000210170DFF8B00B00210170DBE0BDF912
:10478000000028283CDADFF82C0B90F83F00DFF817
:10479000241B91F82810401A1F2820DBDFF8140B87
:1047A00090F84000DFF80C1B91F85510401A1F28B4
:1047B00015DBDFF8F80BDFF8F81B0160DFF8F40B0E
:1047C0000078002800F0B780DFF8EC0B00780228B2
:1047D00040F0B180DFF8E40B01210170ABE0DFF8BD
:1047E000D40B0078002800F0A680DFF8CC0B00780E
:1047F000022840F0A080DFF8C40B012101709AE08C
:10480000BDF900003D2824DBBDF900007D2820DA39
:10481000BDF9000001F0A6FD01F008FD00225FF0E7
:10482000804301F0B9FD01F0B9FCDFF88C1A086093
:10483000002083468246DFF8E80A007801F09CFDFC
:10484000DFF8741A096801F0FBFADFF8601B0860F2
:1048500071E0DFF8580BDFF8581B01606BE05BEA92
:104860000A00C0B2002825D1DFF8500A0068DFF83E
:10487000BC1A098888425ED2DFF83C0B0078012818
:1048800004D0DFF8340B0078032804D1DFF8A00A45
:10489000012101704FE0DFF86C0A01210170DFF89F
:1048A000680A0068006830F40040DFF85C1A0968A4
:1048B000086040E05FFA8AFABAF1000F18D05FFA98
:1048C0008BFBBBF1000F13D100208246DFF84C0AAE
:1048D000007801F051FDDFF8E019096801F0F2FA03
:1048E0005FF07E5101F0ACFADFF8C01A086022E0F8
:1048F0005FFA8AFABAF1000F18D15FFA8BFBBBF1AD
:10490000000F13D000208346DFF8140A007801F06E
:1049100033FDDFF8A419096801F092FADFF8CC1A28
:1049200001F08EFADFF8841A086004E0DFF87C0AF0
:10493000DFF87C1A0160DFF8FC09DFF8FC19096870
:104940000160DFF8EC090078DFF8B819097808434E
:10495000DFF8B81909780843DFF8E819097808433F
:10496000C0B2002804D1DFF8D8090078002804D0AC
:10497000DFF8C409002101600AE0DFF8C00900681F
:10498000DFF8281A096801F09DFADFF8AC19086011
:10499000DFF8A40BDFF8A41B09680160DFF89809B1
:1049A0000068DFF89019096801F08CFADFF89819AF
:1049B0000860DFF884090068002101F0BFFE03D120
:1049C0000020040000F000BCDFF86C0900685FF014
:1049D000804101F083F949D2DFF85C090068DFF813
:1049E0006C1901F08DF941D8DFF8540B0068DFF83D
:1049F0004819096801F024FADFF8441B0860DFF861
:104A0000400B0068DFF83C1B01F07AF905D8DFF8AD
:104A1000300BDFF8341B01600CE0DFF8240B00687A
:104A2000DFF8281B01F05AF904D2DFF8140BDFF885
:104A30001C1B0160DFF8000900210160DFF8000B9A
:104A40000068DFF81C1B096801F06CF980463FB272
:104A5000380001F087FCDFF8F81A096801F062F904
:104A60000100404601F02EFA0400ADE3DFF8C8086B
:104A70000068DFF87C1901F043F907D9DFF8B808BE
:104A80000068DFF8701901F029F951D2DFF87C08CD
:104A90000078012827D1DFF8740800210170DFF8C1
:104AA0009808006801F0C2FB02000B00DFF8B40AAE
:104AB000DFF8441901F0A0FA804689463FB2380079
:104AC00001F050FCDFF8881A096801F02BF901F0B9
:104AD000ADFB02000B004046494601F03DFE01F0EF
:104AE0005DFB040070E3DFF85008006801F09EFBF6
:104AF00002000B00DFF86C0ADFF8001901F07CFA05
:104B0000804689463FB2380001F060FA02000B008F
:104B1000DFF8EC08DFF8EC1801F06EFA02000B0089
:104B20004046494601F018FE01F038FB04004BE313
:104B3000DFF804080068DFF8D01801F0E1F807D9C1
:104B4000DFF8F4070068DFF8C41801F0C7F851D2A5
:104B5000DFF8B8070078012827D1DFF8B007002177
:104B60000170DFF8D407006801F060FB02000B0061
:104B7000DFF8F009DFF8801801F03EFA8046894638
:104B80003FB2380001F0EEFBDFF8C419096801F00C
:104B9000C9F801F04BFB02000B004046494601F00A
:104BA000DBFD01F0FBFA04000EE3DFF88C07006880
:104BB00001F03CFB02000B00DFF8B409DFF89419A8
:104BC00001F01AFA804689463FB2380001F0FEF93A
:104BD00002000B00DFF88009DFF8801901F00CFA01
:104BE00002000B004046494601F0B6FD01F0D6FA3E
:104BF0000400E9E2DFF840070068DFF86C1901F013
:104C00007FF807D9DFF830070068DFF8601901F096
:104C100065F851D2DFF8F4060078012827D1DFF8D3
:104C2000EC0600210170DFF81007006801F0FEFAC1
:104C300002000B00DFF82C09DFF8BC1701F0DCF9EB
:104C4000804689463FB2380001F08CFBDFF800193E
:104C5000096801F067F801F0E9FA02000B0040462C
:104C6000494601F079FD01F099FA0400ACE2DFF861
:104C7000C806006801F0DAFA02000B00DFF8F0085D
:104C8000DFF8D01801F0B8F9804689463FB2380005
:104C900001F09CF902000B00DFF8D808DFF8D81803
:104CA00001F0AAF902000B004046494601F054FD0C
:104CB00001F074FA040087E2DFF87C060068DFF890
:104CC000BC1801F01DF807D9DFF86C060068DFF8A2
:104CD000B01801F003F851D2DFF83006007801284F
:104CE00027D1DFF8280600210170DFF84C060068A4
:104CF00001F09CFA02000B00DFF88808DFF8881842
:104D000001F07AF9804689463FB2380001F02AFB6B
:104D1000DFF83C18096801F005F801F087FA020095
:104D20000B004046494601F017FD01F037FA040038
:104D30004AE2DFF80406006801F078FA02000B008E
:104D4000DFF84808DFF8481801F056F98046894630
:104D50003FB2380001F03AF902000B00DFF83408E6
:104D6000DFF8341801F048F902000B0040464946CC
:104D700001F0F2FC01F012FA040025E2DFF8B805B8
:104D80000068DFF8181800F0BBFF07D9DFF8A805A6
:104D90000068DFF80C1800F0A1FF51D2DFF86C05B5
:104DA0000078012827D1DFF8640500210170DFF8C1
:104DB0008805006801F03AFA02000B00DFF8B0073E
:104DC000DFF8E01701F018F9804689463FB2380055
:104DD00001F0C8FADFF87817096800F0A3FF01F0C6
:104DE00025FA02000B004046494601F0B5FC01F0EF
:104DF000D5F90400E8E1DFF84005006801F016FA93
:104E000002000B00DFF8A007DFF8A01701F0F4F8AC
:104E1000804689463FB2380001F0D8F802000B0006
:104E2000DFF88C07DFF88C1701F0E6F802000B00C2
:104E30004046494601F090FC01F0B0F90400C3E19E
:104E4000DFF8F4040068DFF8701700F059FF07D9A5
:104E5000DFF8E4040068DFF8641700F03FFF51D288
:104E6000DFF8A8040078012827D1DFF8A00400218A
:104E70000170DFF8C404006801F0D8F902000B00EB
:104E8000DFF83C07DFF83C1701F0B6F880468946AA
:104E90003FB2380001F066FADFF8B416096800F096
:104EA00041FF01F0C3F902000B004046494601F002
:104EB00053FC01F073F9040086E1DFF87C0400681C
:104EC00001F0B4F902000B00DFF8FC06DFF8FC1675
:104ED00001F092F8804689463FB2380001F076F83A
:104EE00002000B00DFF8E806DFF8E81601F084F8AE
:104EF00002000B004046494601F02EFC01F04EF93D
:104F0000040061E1DFF830040068DFF8CC1600F03F
:104F1000F7FE07D9DFF820040068DFF8C01600F0BC
:104F2000DDFE51D2DFF8E4030078012827D1DFF855
:104F3000DC0300210170DFF80004006801F076F95D
:104F400002000B00DFF81C06DFF8941601F054F89D
:104F5000804689463FB2380001F004FADFF8F015C8
:104F6000096800F0DFFE01F061F902000B00404625
:104F7000494601F0F1FB01F011F9040024E1DFF8EA
:104F8000B803006801F052F902000B00DFF8540684
:104F9000DFF8541601F030F8804689463FB23800F9
:104FA00001F014F802000B00DFF84006DFF84016AD
:104FB00001F022F802000B004046494601F0CCFB0C
:104FC00001F0ECF80400FFE0DB480068DFF824168D
:104FD00000F096FE06D9D8480068DFF81C1600F0ED
:104FE0007DFE4DD2C9480078012825D1C74800214F
:104FF0000170D148006801F019F902000B00DFF8D8
:105000007005DFF8F81500F0F7FF804689463FB2DB
:10501000380001F0A7F9DFF83815096800F082FEC2
:1050200001F004F902000B004046494601F094FBF0
:1050300001F0B4F80400C7E0BF48006801F0F6F8DA
:1050400002000B00DFF81C05DFF8B41500F0D4FFF8
:10505000804689463FB2380000F0B8FF02000B00DE
:10506000DFF8A005DFF8A01500F0C6FF02000B0076
:105070004046494601F070FB01F090F80400A3E0BF
:10508000AD480068DFF8841500F03AFE06D9AA485A
:105090000068DFF87C1500F021FE4DD29B480078B7
:1050A000012825D1994800210170A348006801F02A
:1050B000BDF802000B00DFF8B804DFF8401500F07F
:1050C0009BFF804689463FB2380001F04BF9DFF87C
:1050D0008014096800F026FE01F0A8F802000B0019
:1050E0004046494601F038FB01F058F804006BE0F7
:1050F0009148006801F09AF802000B00DFF81405EF
:10510000DFF8141500F078FF804689463FB238007A
:1051100000F05CFF02000B00DFF80005DFF800156F
:1051200000F06AFF02000B004046494601F014FB04
:1051300001F034F8040047E0DFF8040400687E4919
:10514000096800F07DFEDFF8F8130860DFF8F0036F
:105150000068DFF8F01300F0D3FD05D8DFF8E003B6
:10516000DFF8E41301600CE0DFF8D4030068DFF837
:10517000DC1300F0B3FD04D2DFF8C403DFF8CC1376
:1051800001606D480068DFF89C14096800F0CAFDF2
:105190008046DFF8AC030068DFF8C413096800F04C
:1051A000C1FD0100404600F04BFE80463FB2380092
:1051B00001F0D8F8DFF89813096800F0B3FD01009A
:1051C000404600F07FFE04002000DFF85C1400F091
:1051D00097FD02D85FF07E5004002000834900F064
:1051E0007DFD01D281480400DFF850030460DFF840
:1051F0004C030068DFF84013096800F063FEDFF835
:105200002C140860DFF828044349098801803D48D0
:1052100000784B49097808434A4909780843C0B2E5
:1052200000282DD1DFF80C0400881938DFF80814A5
:105230000880DFF80404B0F900008D2804DBDFF8F3
:10524000F8038C21018009E0DFF8EC03B0F90000DD
:10525000552803DADFF8E00355210180DFF8D00399
:105260000088DFF8D413B1F90010DFF8C423B2F9D5
:105270000020891A032291FBF2F1081826490880C0
:105280002548B0F900008D2803DB23488C210180DC
:1052900007E02148B0F90000552802DA1E485521E0
:1052A00001801A480078002802D0184800210170B7
:1052B000BDE8F18FD404FF1FD005FF1FD805FF1FE5
:1052C00030B5DFF87803006801F04CF8DFF85C13C4
:1052D000096800F027FD00F0A9FF0022DFF8603325
:1052E00001F05AF804000D009348006800F09EFF9A
:1052F00022002B0000F0C2FF00F050FFDFF8441343
:10530000086030BD0E09FF1F2404FF1F1C09FF1F8A
:10531000EE08FF1FE608FF1FE808FF1F0D09FF1F2B
:105320000C09FF1F1409FF1F1309FF1FDA08FF1FD5
:105330001709FF1FC405FF1FC005FF1FBC05FF1F86
:105340001509FF1F1209FF1FC805FF1FFEFFFFBF42
:1053500080B572B64FF47A7201210020FCF750FA42
:105360004FF47A7202210020FCF74AFA4FF47A7265
:1053700000210220FCF744FA4FF47A720121022046
:10538000FCF73EFA0020DFF8C0120860DFF8BC121C
:105390000860DFF8BC0200210160DFF8B8020021DC
:1053A0000160DFF8A0020021016001BDB805FF1F08
:1053B00000007E421809FF1F1609FF1F1109FF1F79
:1053C00080B5DFF894020068DFF8901200F098FCD6
:1053D00007D9DFF884020068DFF8841200F07EFC51
:1053E00002D2FFF7B5FFFCE701BD0000000080BF5F
:1053F00001004842000048C24D62603F4D62803F5C
:10540000462575029A086B3F01003442000034C201
:1054100030B402004FF6FF75280000252B00DBB2E8
:10542000C9B28B4216D2DBB29D5C684000252C00CD
:10543000E4B2082C0CD2C50706D580B2400880F42F
:10544000204090F0010001E080B24008641CEFE7CA
:105450005B1CE4E780B230BC704730B58BB007A866
:10546000102101F0E9F803A8102101F0E5F800A8E7
:105470000021002200230EC00C380025002004006B
:10548000E4B2042C14D2E4B2DFF8D80150F82400BE
:1054900000F0B4FCE4B207A941F82400E4B203A888
:1054A000E4B207A951F8241040F82410641CE7E77F
:1054B00000200400E4B2042C19D2E4B203A850F88E
:1054C00024004FF48071B0FBF1F202FB1102E4B250
:1054D00000A800F81420E4B203A850F82400000A41
:1054E000E4B200A911EB44014870641CE2E7082112
:1054F00000A8FFF78DFF0500ADB24FF4807095FB5B
:10550000F0F101FB10518DF80810ADB24FF480702E
:1055100095FBF0F08DF8090000200400E4B20A2C9D
:1055200007D2E4B200A8215C0120FDF789FF641CCA
:10553000F4E70BB030BD0000B408FF1FB808FF1F30
:10554000CC05FF1F01E0AB4500E0AB4500E0ABC57B
:10555000B405FF1FE17A843F79E9263108AC6C3F3E
:10556000B005FF1FFCA9F1D201002042000020C2BB
:105570007B14AE472D431CEBE2366A3F01000C4220
:1055800000000CC22F6EA301BC05623F5A643BDFD2
:105590004F8D873F5F07CE1951DA6B3F0100F04115
:1055A0000000F0C1E17A643F9A9999999999893FED
:1055B00092CB7F48BF7D6D3F0100C8410000C8C14C
:1055C000FA7E6ABC7493683F1904560E2DB28D3F63
:1055D000091B9E5E29CB703F0100A0410000A0C1C5
:1055E0004D62703F5839B4C876BE8F3FC58F317752
:1055F0002D216F3F01007041000070C1E17A743FBE
:105600004D62903FD200DE02098A6F3F01002041C7
:10561000000020C14C37894160E5903FDE718A8EE1
:10562000E4F26F3FAC05FF1F0100803FBC08FF1F85
:10563000EA08FF1FD808FF1FEC08FF1FC408FF1F60
:10564000000042409C08FF1F9008FF1F8C08FF1FAE
:105650009408FF1F9808FF1F8405FF1F0000704279
:10566000FFFF6FC2C808FF1F10B5DFF8A80500686C
:1056700050F00100DFF89C150860DFF89C05007809
:10568000401CDFF894150870FFF79AFEDFF88C05D0
:105690000078401CDFF884150870DFF8800500787A
:1056A000242803D3DFF8740500210170DFF87005AA
:1056B0000078DFF868150978884201D1FBF7E5FC2E
:1056C000DFF8540500780C2819D3DFF84C050021C9
:1056D0000170DFF850050078401CDFF848150870AD
:1056E000DFF8400500780328C0F08D81DFF834052D
:1056F00000210170DFF830050121017083E1DFF83E
:1057000018050078032840F04A81DFF8200500885A
:10571000401CDFF818150880DFF8100500881128F4
:10572000C0F07181DFF808050078401EDFF8001531
:105730000870DFF800050078DFF8F41409780843F2
:10574000C0B2002829D1DFF8E80401210170DFF898
:10575000E8040068DFF8E414096800F0BFFA1CD21E
:10576000DFF8D404006800F061FD5FF03332DFF849
:10577000D03400F083FD00F011FDDFF8BC140860A8
:10578000DFF8B4040068DFF8B414096800F0B8FA70
:1057900003D8DFF8A00401210170DFF89804007835
:1057A000002809D0DFF89C040088DFF89C140988E1
:1057B0000818DFF890140880DFF88804B0F90000BA
:1057C00040F6B931884207DBDFF88004012101701F
:1057D000DFF8700400210180DFF8740400780028ED
:1057E00018D0DFF870040088DFF85C140988081806
:1057F000DFF860140880DFF85C04B0F9000040F2C4
:10580000B731884206DBDFF8300400210160FFF782
:105810009FFDFCE7FEF79AF9DFF8100400210180F4
:10582000DFF8340400210180DFF83004007801281B
:105830001ED1DFF82C048068006850F48030DFF857
:10584000201489680860DFF818048068006850F444
:105850000030DFF80C1489680860DFF80404806801
:10586000006830F48020DFF8F8138968086065E08C
:10587000DFF8E803007802281ED1DFF8E40380682F
:10588000006830F48030DFF8D81389680860DFF8EA
:10589000D0038068006850F40030DFF8C4138968D2
:1058A0000860DFF8BC038068006850F48020DFF8EF
:1058B000B0138968086041E0DFF8A003007803288E
:1058C0001ED1DFF89C038068006850F48030DFF858
:1058D000901389680860DFF888038068006830F4F6
:1058E0000030DFF87C1389680860DFF87403806893
:1058F000006850F48020DFF86813896808601DE0B4
:10590000DFF85C038068006850F48030DFF85013E3
:1059100089680860DFF848038068006850F4003048
:10592000DFF83C1389680860DFF83403806800689A
:1059300050F48020DFF8281389680860DFF824031A
:105940000078002817D0DFF820030078401CC649F3
:105950000870C6480068C649098810FA81F0C34932
:105960000860C1480078082805D3BE4800210170AE
:10597000C04801210170C0480078401CBE49087031
:10598000BD4800781E283ED3BC48007800283AD194
:10599000B44801210170B9480121017033E09E48EB
:1059A0000078062817D1FDF71CFB012301220821EE
:1059B0000020FCF749FCB248B0F9000000F0D2FC2E
:1059C00001000C00AF48B0F9000000F0CBFC210052
:1059D000FEF7C4FA17E090480078092813D1FDF7C4
:1059E00010FFFEF7D5FB9C4800880C309A490880D0
:1059F000FEF708FAA44800680C30A3490860FFF7D6
:105A00005FFCFEF733F810BD80B50F210020FCF7D6
:105A100043FF9E48006850F001009C49086001BDAA
:105A200010B59B48006850F00100994908600024B7
:105A300040200400E4B2012C0FD3012204210120F4
:105A4000FCF7AAFB00F098FC9249086091480021FD
:105A50008160FFF702FD641EECE710BD80B58E4843
:105A60000068800607D58C48006850F020008A49FD
:105A70000860FCF723F901BD38B572B64FF47A73AC
:105A800041F2883201210020FBF7DBFC4FF47A73EE
:105A900041F2883202210020FBF7D3FC4FF47A73E5
:105AA00041F2883200210220FBF7CBFC4FF47A73DD
:105AB00041F2883201210220FBF7C3FC00230022BF
:105AC00005210320FCF78AFE002300220621032083
:105AD000FCF784FEFDF72EFDFDF7EAFCFDF734FE32
:105AE0006E486F4901606F486F4901606F4800213F
:105AF0000160FBF71BFFFCF766FCFCF77EFCFDF783
:105B00004DFA04210120FCF797F908210020FCF749
:105B100093F94FF46170FCF7D8FE40230022042172
:105B20000120FCF7A2FB62490880402301220821E2
:105B30000020FCF79AFB5F490880FBF758FF02231F
:105B400047F6FF7240210420FCF71AFD022347F6B6
:105B5000FF7260210520FCF713FDFBF784FA56481D
:105B6000040000200500EDB2802D04D2002020703A
:105B7000641C6D1CF7E751486E2101805048514963
:105B8000016044F620610020FCF716F962B6344843
:105B9000C0680069C0F34010002802D04A480121C3
:105BA000017021480078002817D01F48002101709B
:105BB0004148FBF7C1FA454801210170FBF722FB80
:105BC000FEF7C6FC42480078401C41490870414835
:105BD000002101602C48002101602648007800283F
:105BE00007D022480068C0083B49086021480021CE
:105BF0000170FFF7E5FB364800780A2802D33448E5
:105C000000210170314800780028C0D02F480021C1
:105C10000170BCE70C7103400809FF1FFF08FF1F5C
:105C20000009FF1FFE08FF1F0409FF1FF808FF1FE0
:105C30000709FF1F0909FF1F5C05FF1FA408FF1FBD
:105C40003333D33FF008FF1FDC08FF1F1809FF1F85
:105C50001109FF1FF208FF1FFA08FF1F1609FF1F97
:105C60002404FF1F1909FF1F1A09FF1F5405FF1FF6
:105C7000DA08FF1F0109FF1F0209FF1F1B09FF1F91
:105C8000E208FF1FE008FF1FC408FF1F1C7103404C
:105C90002C710340C808FF1FA0D004408005FF1FDF
:105CA0003333B33E9805FF1F00007A435805FF1FAA
:105CB000E608FF1FE408FF1FD404FF1FE808FF1FCA
:105CC000BC05FF1F00007E421409FF1F0309FF1FD0
:105CD000FC08FF1FC008FF1FD805FF1F4FF0807C86
:105CE0001CEB400F94BF1CEB410F05E040EA010C98
